:020000040000FA
:020000000528D1
:040002000034003492
:080008000428831603130630DF
:100010009F00831603138501831203138501831642
:1000200003138901831203138901831603138113B8
:10003000831603131E308600831203138601D0201B
:100040008316031388018312031388018312031399
:10005000A501A50AA8010630A8000030A9000030BB
:10006000B0000A30B3000130B7001930B20083127B
:10007000031301308800091489140915D0200910D0
:1000800089100911061A3728061E4428472828080F
:10009000ED2088000515D0200511370888000915C6
:1000A000D02009113008E22088008914D02089105E
:1000B0002908E22088000914D020091083160313B0
:1000C0001D308600831203138601D020061A722881
:1000D0000130B700061E6A2830083302B400B40BA2
:1000E000B00A4728831603132D30860083120313AA
:1000F0008601D020861A84280130B700861E7E280B
:10010000B00AB00BB00B4728831603134D3086009E
:10011000831203138601D020061B98280130B700F4
:10012000061F902829083302B400B40BA90A4728F7
:10013000831603138D308600831203138601D020AB
:10014000861BAA280130B700861FA428A90AA90B7C
:10015000A90B47286530B500B601B4018316031317
:100160008B308600831203138601D020861B47281C
:10017000F520861FB928BC280530B90030083007A3
:1001800030073007300730073007300730073007B7
:100190002907B6003202B400B40AB40B1829FE28AD
:1001A0000030A6001130A700A60BD428A70BD42836
:1001B0000800AA30A600FF30A700A60BD428A70B82
:1001C000D428080082077E3430346D3479343334D7
:1001D0005B345F3470347F347B3482070034013405
:1001E000033407340F341F343F34AA30A600FF30E5
:1001F000A700A60BF928A70BF9280800B90B0129BD
:100200002B294630B8003008E22088008914D0201D
:1002100089102908E22088000914D0200910B80BA1
:1002200003294630B800D020D020B80B1329FE286F
:1002300036083202B600B50B1E292629B60B1B293B
:1002400021292330B700A80B47282B291530B700E8
:10025000A80B47282B294F3088000915D0200911F9
:10026000153088008914D02089103D308800091489
:06027000D02009102B292B
:02400E007A3FF7
:00000001FF
