:020000040000FA
:100000008601831685008601831200308E0006105B
:10001000851C0B280E28051D082827280E080F39D7
:10002000152086008E0A40200E2882073F340634B1
:100030005B344F3466346D347D3407347F346F3431
:1000400077347C3439345E347934713408280E08BE
:100050000F392E2086008E0A40202728820771340F
:1000600079345E3439347C3477346F347F340734F8
:100070007D346D3466344F345B3406343F340828A5
:10008000FF308C00FF308D008D0B44288C0B4228F4
:02009000080066
:02400E00F13F80
:00000001FF
