:020000040000FA
:1000000086018316860183120610851C08280B289A
:10001000051D052812280E080F392B2086008E0A90
:100020003D2005280E080F39192086008E0A3D2034
:1000300005288207713479345E3439347C3477345E
:100040006F347F3407347D346D3466344F345B3421
:1000500006343F34052882073F3406345B344F347E
:1000600066346D347D3407347F346F3477347C34B8
:1000700039345E34793471340528FF308C00FF3018
:0C0080008D008D0B41288C0B3F280800E0
:02400E00F13F80
:00000001FF
